{
  "_format": "hh-sol-artifact-1",
  "contractName": "Raffle",
  "sourceName": "contracts/Raffle.sol",
  "abi": [
    {
      "inputs": [
        {
          "internalType": "address",
          "name": "vrfCoordinatorV2",
          "type": "address"
        },
        {
          "internalType": "uint256",
          "name": "entranceFee",
          "type": "uint256"
        },
        {
          "internalType": "bytes32",
          "name": "gasLane",
          "type": "bytes32"
        },
        {
          "internalType": "uint64",
          "name": "subscriptionId",
          "type": "uint64"
        },
        {
          "internalType": "uint32",
          "name": "callbackGasLimit",
          "type": "uint32"
        },
        {
          "internalType": "uint256",
          "name": "interval",
          "type": "uint256"
        }
      ],
      "stateMutability": "nonpayable",
      "type": "constructor"
    },
    {
      "inputs": [
        {
          "internalType": "address",
          "name": "have",
          "type": "address"
        },
        {
          "internalType": "address",
          "name": "want",
          "type": "address"
        }
      ],
      "name": "OnlyCoordinatorCanFulfill",
      "type": "error"
    },
    {
      "inputs": [],
      "name": "Raffle__NotEnoughEtherEntered",
      "type": "error"
    },
    {
      "inputs": [],
      "name": "Raffle__NotOpen",
      "type": "error"
    },
    {
      "inputs": [],
      "name": "Raffle__TransferFailed",
      "type": "error"
    },
    {
      "inputs": [
        {
          "internalType": "uint256",
          "name": "currentBalance",
          "type": "uint256"
        },
        {
          "internalType": "uint256",
          "name": "numPlayers",
          "type": "uint256"
        },
        {
          "internalType": "uint256",
          "name": "raffleState",
          "type": "uint256"
        }
      ],
      "name": "Raffle__UpkeepNotNeeded",
      "type": "error"
    },
    {
      "anonymous": false,
      "inputs": [
        {
          "indexed": true,
          "internalType": "address",
          "name": "player",
          "type": "address"
        }
      ],
      "name": "RaffleEnter",
      "type": "event"
    },
    {
      "anonymous": false,
      "inputs": [
        {
          "indexed": true,
          "internalType": "uint256",
          "name": "requestId",
          "type": "uint256"
        }
      ],
      "name": "RequestedRaffleWinner",
      "type": "event"
    },
    {
      "anonymous": false,
      "inputs": [
        {
          "indexed": true,
          "internalType": "address",
          "name": "winner",
          "type": "address"
        }
      ],
      "name": "WinnerPicked",
      "type": "event"
    },
    {
      "inputs": [
        {
          "internalType": "bytes",
          "name": "",
          "type": "bytes"
        }
      ],
      "name": "checkUpkeep",
      "outputs": [
        {
          "internalType": "bool",
          "name": "upkeepNeeded",
          "type": "bool"
        },
        {
          "internalType": "bytes",
          "name": "",
          "type": "bytes"
        }
      ],
      "stateMutability": "nonpayable",
      "type": "function"
    },
    {
      "inputs": [],
      "name": "enterRaffle",
      "outputs": [],
      "stateMutability": "payable",
      "type": "function"
    },
    {
      "inputs": [],
      "name": "getEntranceFee",
      "outputs": [
        {
          "internalType": "uint256",
          "name": "",
          "type": "uint256"
        }
      ],
      "stateMutability": "view",
      "type": "function"
    },
    {
      "inputs": [],
      "name": "getLatestTimeStamp",
      "outputs": [
        {
          "internalType": "uint256",
          "name": "",
          "type": "uint256"
        }
      ],
      "stateMutability": "view",
      "type": "function"
    },
    {
      "inputs": [],
      "name": "getNumberOfPlayers",
      "outputs": [
        {
          "internalType": "uint256",
          "name": "",
          "type": "uint256"
        }
      ],
      "stateMutability": "view",
      "type": "function"
    },
    {
      "inputs": [],
      "name": "getNumberOfWords",
      "outputs": [
        {
          "internalType": "uint256",
          "name": "",
          "type": "uint256"
        }
      ],
      "stateMutability": "pure",
      "type": "function"
    },
    {
      "inputs": [
        {
          "internalType": "uint256",
          "name": "index",
          "type": "uint256"
        }
      ],
      "name": "getPlayer",
      "outputs": [
        {
          "internalType": "address",
          "name": "",
          "type": "address"
        }
      ],
      "stateMutability": "view",
      "type": "function"
    },
    {
      "inputs": [],
      "name": "getRaffleState",
      "outputs": [
        {
          "internalType": "enum Raffle.RaffleState",
          "name": "",
          "type": "uint8"
        }
      ],
      "stateMutability": "view",
      "type": "function"
    },
    {
      "inputs": [],
      "name": "getRequestConfirmations",
      "outputs": [
        {
          "internalType": "uint256",
          "name": "",
          "type": "uint256"
        }
      ],
      "stateMutability": "pure",
      "type": "function"
    },
    {
      "inputs": [],
      "name": "getWinner",
      "outputs": [
        {
          "internalType": "address",
          "name": "",
          "type": "address"
        }
      ],
      "stateMutability": "view",
      "type": "function"
    },
    {
      "inputs": [
        {
          "internalType": "bytes",
          "name": "",
          "type": "bytes"
        }
      ],
      "name": "performUpkeep",
      "outputs": [],
      "stateMutability": "nonpayable",
      "type": "function"
    },
    {
      "inputs": [
        {
          "internalType": "uint256",
          "name": "requestId",
          "type": "uint256"
        },
        {
          "internalType": "uint256[]",
          "name": "randomWords",
          "type": "uint256[]"
        }
      ],
      "name": "rawFulfillRandomWords",
      "outputs": [],
      "stateMutability": "nonpayable",
      "type": "function"
    }
  ],
  "bytecode": "0x6101606040523480156200001257600080fd5b50604051620016ed380380620016ed833981810160405281019062000038919062000294565b858073ffffffffffffffffffffffffffffffffffffffff1660808173ffffffffffffffffffffffffffffffffffffffff1681525050508460a081815250508573ffffffffffffffffffffffffffffffffffffffff1660c08173ffffffffffffffffffffffffffffffffffffffff16815250508360e081815250508267ffffffffffffffff166101008167ffffffffffffffff16815250508163ffffffff166101208163ffffffff16815250506000600160146101000a81548160ff021916908360018111156200010d576200010c62000330565b5b0217905550426002819055508061014081815250505050505050506200035f565b600080fd5b600073ffffffffffffffffffffffffffffffffffffffff82169050919050565b6000620001608262000133565b9050919050565b620001728162000153565b81146200017e57600080fd5b50565b600081519050620001928162000167565b92915050565b6000819050919050565b620001ad8162000198565b8114620001b957600080fd5b50565b600081519050620001cd81620001a2565b92915050565b6000819050919050565b620001e881620001d3565b8114620001f457600080fd5b50565b6000815190506200020881620001dd565b92915050565b600067ffffffffffffffff82169050919050565b6200022d816200020e565b81146200023957600080fd5b50565b6000815190506200024d8162000222565b92915050565b600063ffffffff82169050919050565b6200026e8162000253565b81146200027a57600080fd5b50565b6000815190506200028e8162000263565b92915050565b60008060008060008060c08789031215620002b457620002b36200012e565b5b6000620002c489828a0162000181565b9650506020620002d789828a01620001bc565b9550506040620002ea89828a01620001f7565b9450506060620002fd89828a016200023c565b93505060806200031089828a016200027d565b92505060a06200032389828a01620001bc565b9150509295509295509295565b7f4e487b7100000000000000000000000000000000000000000000000000000000600052602160045260246000fd5b60805160a05160c05160e051610100516101205161014051611325620003c860003960006107670152600061065f0152600061063c0152600061061b015260006105df0152600081816102b401526103b10152600081816102f1015261034501526113256000f3fe6080604052600436106100a75760003560e01c80635f1b0fd8116100645780635f1b0fd8146101895780636e04ff0d146101b45780636f9d9c84146101f25780638e7ea5b21461021d578063e55ae4e814610248578063fd6673f514610285576100a7565b806309bc33a7146100ac578063115cbaf5146100d75780631fe543e3146101025780632cfcc5391461012b578063320229eb146101355780634585e33b14610160575b600080fd5b3480156100b857600080fd5b506100c16102b0565b6040516100ce9190610b4e565b60405180910390f35b3480156100e357600080fd5b506100ec6102d8565b6040516100f99190610be0565b60405180910390f35b34801561010e57600080fd5b5061012960048036038101906101249190610d94565b6102ef565b005b6101336103af565b005b34801561014157600080fd5b5061014a61051e565b6040516101579190610b4e565b60405180910390f35b34801561016c57600080fd5b5061018760048036038101906101829190610ea5565b610528565b005b34801561019557600080fd5b5061019e610717565b6040516101ab9190610b4e565b60405180910390f35b3480156101c057600080fd5b506101db60048036038101906101d69190610ea5565b610724565b6040516101e9929190610f91565b60405180910390f35b3480156101fe57600080fd5b506102076107d1565b6040516102149190610b4e565b60405180910390f35b34801561022957600080fd5b506102326107e0565b60405161023f9190611002565b60405180910390f35b34801561025457600080fd5b5061026f600480360381019061026a919061101d565b61080a565b60405161027c9190611002565b60405180910390f35b34801561029157600080fd5b5061029a610851565b6040516102a79190610b4e565b60405180910390f35b60007f0000000000000000000000000000000000000000000000000000000000000000905090565b6000600160149054906101000a900460ff16905090565b7f000000000000000000000000000000000000000000000000000000000000000073ffffffffffffffffffffffffffffffffffffffff163373ffffffffffffffffffffffffffffffffffffffff16146103a157337f00000000000000000000000000000000000000000000000000000000000000006040517f1cf993f400000000000000000000000000000000000000000000000000000000815260040161039892919061104a565b60405180910390fd5b6103ab828261085d565b5050565b7f0000000000000000000000000000000000000000000000000000000000000000341015610409576040517fe36300ab00000000000000000000000000000000000000000000000000000000815260040160405180910390fd5b6000600181111561041d5761041c610b69565b5b600160149054906101000a900460ff16600181111561043f5761043e610b69565b5b14610476576040517f1425571c00000000000000000000000000000000000000000000000000000000815260040160405180910390fd5b6000339080600181540180825580915050600190039060005260206000200160009091909190916101000a81548173ffffffffffffffffffffffffffffffffffffffff021916908373ffffffffffffffffffffffffffffffffffffffff1602179055503373ffffffffffffffffffffffffffffffffffffffff167f0805e1d667bddb8a95f0f09880cf94f403fb596ce79928d9f29b74203ba284d460405160405180910390a2565b6000600254905090565b600061054260405180602001604052806000815250610724565b509050806105b15747600080549050600160149054906101000a900460ff16600181111561057357610572610b69565b5b6040517f584327aa0000000000000000000000000000000000000000000000000000000081526004016105a893929190611073565b60405180910390fd5b60018060146101000a81548160ff021916908360018111156105d6576105d5610b69565b5b021790555060007f000000000000000000000000000000000000000000000000000000000000000073ffffffffffffffffffffffffffffffffffffffff16635d3b1d307f00000000000000000000000000000000000000000000000000000000000000007f000000000000000000000000000000000000000000000000000000000000000060037f000000000000000000000000000000000000000000000000000000000000000060016040518663ffffffff1660e01b81526004016106a0959493929190611122565b6020604051808303816000875af11580156106bf573d6000803e3d6000fd5b505050506040513d601f19601f820116820180604052508101906106e3919061118a565b9050807fcd6e45c8998311cab7e9d4385596cac867e20a0587194b954fa3a731c93ce78b60405160405180910390a2505050565b6000600361ffff16905090565b600060606000600160149054906101000a900460ff16600181111561074c5761074b610b69565b5b600060018111156107605761075f610b69565b5b14905060007f00000000000000000000000000000000000000000000000000000000000000006002544261079491906111e6565b119050600080600080549050119050600080471190508380156107b45750825b80156107bd5750815b80156107c65750805b955050505050915091565b6000600163ffffffff16905090565b6000600160009054906101000a900473ffffffffffffffffffffffffffffffffffffffff16905090565b600080828154811061081f5761081e61121a565b5b9060005260206000200160009054906101000a900473ffffffffffffffffffffffffffffffffffffffff169050919050565b60008080549050905090565b60008080549050826000815181106108785761087761121a565b5b602002602001015161088a9190611278565b905060008082815481106108a1576108a061121a565b5b9060005260206000200160009054906101000a900473ffffffffffffffffffffffffffffffffffffffff16905080600160006101000a81548173ffffffffffffffffffffffffffffffffffffffff021916908373ffffffffffffffffffffffffffffffffffffffff1602179055506000600160146101000a81548160ff0219169083600181111561093557610934610b69565b5b0217905550600067ffffffffffffffff81111561095557610954610c51565b5b6040519080825280602002602001820160405280156109835781602001602082028036833780820191505090505b5060009080519060200190610999929190610a8e565b504260028190555060008173ffffffffffffffffffffffffffffffffffffffff16476040516109c7906112da565b60006040518083038185875af1925050503d8060008114610a04576040519150601f19603f3d011682016040523d82523d6000602084013e610a09565b606091505b5050905080610a44576040517fa1d04b3900000000000000000000000000000000000000000000000000000000815260040160405180910390fd5b8173ffffffffffffffffffffffffffffffffffffffff167f5b690ec4a06fe979403046eaeea5b3ce38524683c3001f662c8b5a829632f7df60405160405180910390a25050505050565b828054828255906000526020600020908101928215610b07579160200282015b82811115610b065782518260006101000a81548173ffffffffffffffffffffffffffffffffffffffff021916908373ffffffffffffffffffffffffffffffffffffffff16021790555091602001919060010190610aae565b5b509050610b149190610b18565b5090565b5b80821115610b31576000816000905550600101610b19565b5090565b6000819050919050565b610b4881610b35565b82525050565b6000602082019050610b636000830184610b3f565b92915050565b7f4e487b7100000000000000000000000000000000000000000000000000000000600052602160045260246000fd5b60028110610ba957610ba8610b69565b5b50565b6000819050610bba82610b98565b919050565b6000610bca82610bac565b9050919050565b610bda81610bbf565b82525050565b6000602082019050610bf56000830184610bd1565b92915050565b6000604051905090565b600080fd5b600080fd5b610c1881610b35565b8114610c2357600080fd5b50565b600081359050610c3581610c0f565b92915050565b600080fd5b6000601f19601f8301169050919050565b7f4e487b7100000000000000000000000000000000000000000000000000000000600052604160045260246000fd5b610c8982610c40565b810181811067ffffffffffffffff82111715610ca857610ca7610c51565b5b80604052505050565b6000610cbb610bfb565b9050610cc78282610c80565b919050565b600067ffffffffffffffff821115610ce757610ce6610c51565b5b602082029050602081019050919050565b600080fd5b6000610d10610d0b84610ccc565b610cb1565b90508083825260208201905060208402830185811115610d3357610d32610cf8565b5b835b81811015610d5c5780610d488882610c26565b845260208401935050602081019050610d35565b5050509392505050565b600082601f830112610d7b57610d7a610c3b565b5b8135610d8b848260208601610cfd565b91505092915050565b60008060408385031215610dab57610daa610c05565b5b6000610db985828601610c26565b925050602083013567ffffffffffffffff811115610dda57610dd9610c0a565b5b610de685828601610d66565b9150509250929050565b600080fd5b600067ffffffffffffffff821115610e1057610e0f610c51565b5b610e1982610c40565b9050602081019050919050565b82818337600083830152505050565b6000610e48610e4384610df5565b610cb1565b905082815260208101848484011115610e6457610e63610df0565b5b610e6f848285610e26565b509392505050565b600082601f830112610e8c57610e8b610c3b565b5b8135610e9c848260208601610e35565b91505092915050565b600060208284031215610ebb57610eba610c05565b5b600082013567ffffffffffffffff811115610ed957610ed8610c0a565b5b610ee584828501610e77565b91505092915050565b60008115159050919050565b610f0381610eee565b82525050565b600081519050919050565b600082825260208201905092915050565b60005b83811015610f43578082015181840152602081019050610f28565b83811115610f52576000848401525b50505050565b6000610f6382610f09565b610f6d8185610f14565b9350610f7d818560208601610f25565b610f8681610c40565b840191505092915050565b6000604082019050610fa66000830185610efa565b8181036020830152610fb88184610f58565b90509392505050565b600073ffffffffffffffffffffffffffffffffffffffff82169050919050565b6000610fec82610fc1565b9050919050565b610ffc81610fe1565b82525050565b60006020820190506110176000830184610ff3565b92915050565b60006020828403121561103357611032610c05565b5b600061104184828501610c26565b91505092915050565b600060408201905061105f6000830185610ff3565b61106c6020830184610ff3565b9392505050565b60006060820190506110886000830186610b3f565b6110956020830185610b3f565b6110a26040830184610b3f565b949350505050565b6000819050919050565b6110bd816110aa565b82525050565b600067ffffffffffffffff82169050919050565b6110e0816110c3565b82525050565b600061ffff82169050919050565b6110fd816110e6565b82525050565b600063ffffffff82169050919050565b61111c81611103565b82525050565b600060a08201905061113760008301886110b4565b61114460208301876110d7565b61115160408301866110f4565b61115e6060830185611113565b61116b6080830184611113565b9695505050505050565b60008151905061118481610c0f565b92915050565b6000602082840312156111a05761119f610c05565b5b60006111ae84828501611175565b91505092915050565b7f4e487b7100000000000000000000000000000000000000000000000000000000600052601160045260246000fd5b60006111f182610b35565b91506111fc83610b35565b92508282101561120f5761120e6111b7565b5b828203905092915050565b7f4e487b7100000000000000000000000000000000000000000000000000000000600052603260045260246000fd5b7f4e487b7100000000000000000000000000000000000000000000000000000000600052601260045260246000fd5b600061128382610b35565b915061128e83610b35565b92508261129e5761129d611249565b5b828206905092915050565b600081905092915050565b50565b60006112c46000836112a9565b91506112cf826112b4565b600082019050919050565b60006112e5826112b7565b915081905091905056fea2646970667358221220f7ef70421bfb23bf487c5d7723a4b6de5abc3e5f4bda33c147c9d507f8d7adf364736f6c634300080f0033",
  "linkReferences": {},
  "deployedLinkReferences": {}
}